:0410000007EF08F0FE
:101008005182D8ED0BF085EF0EF00001000A006464
:0D10180000E80310272564000A002C0000EA
:10102600010EC26EC282C2B2FED7C4CF3AF03B6A8C
:101036003AC060F03BC061F0000E0001636F180E0D
:10104600626F71EC0EF060C066F061C067F0000E72
:101056000001696F3C0E686FD3EC0CF066C03AF085
:1010660067C03BF0000E0001616F640E606F3AECE2
:101076000EF0050EC26EC282C2B2FED7C4CF38F0E1
:10108600396A38C06EF039C06FF000016E1F6F1FED
:101096006E4B6F2BFF0E6E25606F000E6F21616F1A
:1010A600000E636F640E626F71EC0EF060C066F046
:1010B60061C067F0000E0001696F6869D3EC0CF03F
:1010C60066C038F067C039F0090EC26EC282C2B27D
:1010D600FED7C4CF36F0376A36C06EF037C06FF031
:1010E60000016E1F6F1F6E4B6F2BFF0E6E25606F1C
:1010F600000E6F21616F000E636F640E626F71ECFC
:101106000EF060C066F061C067F0000E0001696F06
:101116006869D3EC0CF066C036F067C037F00D0E88
:10112600C26EC282C2B2FED7C4CF34F0356A34C0B2
:101136006EF035C06FF000016E1F6F1F6E4B6F2B88
:10114600FF0E6E25606F000E6F21616F000E636FDC
:10115600640E626F71EC0EF060C066F061C067F0FD
:10116600000E0001696F6869D3EC0CF066C034F0BC
:1011760067C035F0110EC26EC282C2B2FED7C4CFAE
:1011860032F0336A32C06EF033C06FF000016E1F6A
:101196006F1F6E4B6F2BFF0E6E25606F000E6F215B
:1011A600616F000E636F640E626F71EC0EF060C0CB
:1011B60066F061C067F0000E0001696FFA0E686F95
:1011C600D3EC0CF066C032F067C033F0120083C077
:1011D60087F00001886B896B8235873701E3888148
:1011E60087518C6F86C087F0886B896B853587370A
:1011F60001E3888187518B6F8C51D8B40BD08B510A
:101206008C5DD8B00ED08C5100088B25876F180ED8
:10121600876507D084C081F085C082F086C083F0E0
:1012260012008B51D8B40BD08C518B5DD8B00ED038
:101236008B5100088C25876F180E876507D081C0F3
:1012460081F082C082F083C083F01200060E8A6F9E
:1012560083BF8A8F86BF8A8D828FFF0E8117FF0E0E
:101266008217000E8317858FFF0E8417FF0E8517D2
:10127600000E86178B518C5DD8B01BD0D890843762
:10128600853786378B078C518B19D8B40DD08A07D2
:101296008AC087F0070E8717D8B406D0EFD7D89044
:1012A6008333823381338C2B8B518C19D8B41FD066
:1012B600F6D78C518B5DD8B01AD0D890813782374B
:1012C60083378C078C518B19D8B40DD08A078AC006
:1012D60087F0070E8717D8B406D0EFD7D890863395
:1012E600853384338B2B8B518C19D8A4F7D78AAFCF
:1012F6000CD0FF0E811BFF0E821BFF0E831B010EFF
:101306008127000E8223000E83238AAD0CD0FF0EA8
:10131600841BFF0E851BFF0E861B010E8427000E05
:101326008523000E8623000E8A6F81518427825101
:1013360085238351862386AF0ED0FF0E841BFF0EB6
:10134600851BFF0E861B010E8427000E8523000ECB
:101356008623010E8A6F84C060F085C061F086C066
:1013660062F08CC063F08AC064F037EC0CF060C0A9
:1013760081F061C082F062C083F01200110E146E1B
:10138600000E156E8CD0250E1A18D8B409D00DC0D3
:10139600D9FF0EC0DAFF1AC0DFFF0D4A0E2A7FD032
:1013A600000E166E0FC0F6FF10C0F7FF0F4A102A88
:1013B6000800F5CF1AF01A50000AD8B47CD0640A97
:1013C600D8B403D00D0AD8A46AD014C0D9FF15C06A
:1013D600DAFFDECF18F0DDCF19F0020E1426000E6C
:1013E600152219AE06D0030E1612186C191ED8B0A7
:1013F600192A010E1A6E050E1A18D8B412D01A50F0
:10140600020D130EF324F66E100EF420F76E09008B
:10141600F550185C0900F5501958D8A002D01A2AC0
:10142600EAD716C013F0030E1316D8B408D00DC0B1
:10143600D9FF0EC0DAFF2D0EDF6E0D4A0E2A1AC036
:1014460017F029D01750020D130EF324F66E100E66
:10145600F420F76E0900F5CF03F00A00F5CF04F08B
:1014660018C001F019C002F0C7EC0DF001C008F079
:1014760002C009F0000E0B6E0A0E0A6E19EC0EF091
:101486000850300F1A6E0DC0D9FF0EC0DAFF1AC011
:10149600DFFF0D4A0E2A17061728D8A4D3D70FC088
:1014A600F6FF10C0F7FF0F4A102A0800F5CF1AF012
:1014B6001A50D8A468D70DC0D9FF0EC0DAFF000EA7
:1014C600DF6E1200410E0D6E000E0E6E1D0E0F6EBB
:1014D600100E106E3AC011F03BC012F0C1EC09F0CC
:1014E600410E026E000E036EF0EC0DF0410E0D6E15
:1014F600000E0E6E1D0E0F6E100E106E38C011F01F
:1015060039C012F0C1EC09F0220E026E100E036E05
:10151600F0EC0DF0410E026E000E036EF0EC0DF0D5
:10152600410E0D6E000E0E6E1D0E0F6E100E106E1D
:1015360036C011F037C012F0C1EC09F0220E026E6F
:10154600100E036EF0EC0DF0410E026E000E036EEF
:10155600F0EC0DF0410E0D6E000E0E6E1D0E0F6EB0
:10156600100E106E34C011F035C012F0C1EC09F047
:10157600220E026E100E036EF0EC0DF0410E026E9E
:10158600000E036EF0EC0DF0410E0D6E000E0E6EA9
:101596001D0E0F6E100E106E32C011F033C012F019
:1015A600C1EC09F0220E026E100E036EF0EC0DF087
:1015B600410E026E000E036EF0EC0DF0200E026E70
:1015C600100E036EF0EC0DF012008FC091F00001CA
:1015D600926B936B8E35913701E3928191519B6F9C
:1015E6009B51D8A409D0000E8D6F000E8E6F000E91
:1015F6008F6F000E906F1200170E916F8DC092F0D4
:101606008EC093F08FC094F09129956F04D0D89036
:10161600943393339233952FFAD700019251966FF4
:101626008E8FFF0E8D17FF0E8E17000E8F178D51A2
:10163600976F8E51986F8F51996F9A6B8E0E9B5F35
:101646009BAF16D09B51800A8F0FD8B009D0000EE1
:101656008D6F000E8E6F000E8F6F000E906F120052
:10166600D8909A339933983397339B3FF9D715D04F
:10167600170E9B650FD0000E8D6F000E8E6F000E3D
:101686008F6F000E906F1200D89097379837993762
:101696009A379B079B51D8A4F7D79651D8B408D050
:1016A6009A1F991F981F976D000E982399239A23C6
:1016B60097C08DF098C08EF099C08FF09AC090F0C8
:1016C600120074C078F00001796B7A6B7335783745
:1016D60001E3798178517F6F7F51D8A407D0000E3E
:1016E600726F000E736F000E746F120077C078F081
:1016F600796B7A6B7635783701E379817851806F2B
:101706008051D8A407D0000E726F000E736F000EC2
:10171600746F1200000E7C6F000E7D6F000E7E6FE0
:101726008051890F7F5F74C080F07751801B800ED7
:101736008017738FFF0E7217FF0E7317000E741744
:10174600768FFF0E7517FF0E7617000E7717180E99
:101756007B6FD8907C377D377E377551725D7651B9
:10176600735977517459D8A007D07551725F765165
:10177600735B7751745B7C81D8907237733774379B
:101786007B2FE7D77CC060F07DC061F07EC062F041
:101796007FC063F080C064F037EC0CF060C072F07C
:1017A60061C073F062C074F012000600FACF1BF03D
:1017B600FBCF1CF0E9CF1DF0EACF1EF0E1CF1FF002
:1017C600E2CF20F0D9CF21F0DACF22F0F3CF23F009
:1017D600F4CF24F0F6CF25F0F7CF26F0F8CF27F098
:1017E600F5CF28F051C029F052C02AF053C02BF093
:1017F60054C02CF0D8CF2DF0F29E9EAA0CD09EECB1
:101806000EF02E0AD8B465EC0AF0000E026E640ED5
:10181600016E56EC0EF0F28E2DC0D8FF2CC054F09F
:101826002BC053F02AC052F029C051F028C0F5FF52
:1018360027C0F8FF26C0F7FF25C0F6FF24C0F4FF37
:1018460023C0F3FF22C0DAFF21C0D9FF20C0E2FF88
:101856001FC0E1FF1EC0EAFF1DC0E9FF1CC0FBFF61
:101866001BC0FAFF5192110000016351D8B405D094
:10187600605161116211D8A40CD0000E606F000E89
:10188600616F000E626F1200632BD8906233613372
:101896006033000E6015656F000E6115666FFE0EF3
:1018A6006215676F655166116711D8B40CD0ECD715
:1018B600632B010E6027000E6123000E6223D89071
:1018C600623361336033000E6015656F000E61157B
:1018D600666FFF0E6215676F655166116711D8B4A2
:1018E60006D0E6D76307D89060376137623761BFA5
:1018F60003D0020E6361F6D763A1619FD89063336C
:10190600635162136451D8A4628F60C060F061C0F5
:1019160061F062C062F01200000E956E000E836EDA
:10192600000EC16E160EC06E720ED36E800E0001D2
:101936009C6F250E9D6F000E9E6F000E9F6F53ECE1
:101946000DF0F28EF28C9D8A000E0001A16F000E42
:10195600A06F030E616FE80E606F3AEC0EF0030E97
:101966000001616FE80E606F3AEC0EF0000E0001A8
:10197600616F640E606F3AEC0EF013EC08F0030E24
:101986000001616FE80E606F3AEC0EF08FEC0DF01F
:10199600000E0001616F640E606F3AEC0EF0E6D740
:1019A600000E00016B6F69AF06D0686D691FD8B075
:1019B600692B010E6B6F67AF06D0666D671FD8B0D7
:1019C600672B010E6B1B000E6D6F000E6C6F68515E
:1019D6006911D8B41CD0010E6A6F04D0D89068374C
:1019E60069376A2B69AFFAD7D8906C376D3768516B
:1019F600665D69516759D8A005D06851665F69511F
:101A0600675B6C81D890693368336A2FEDD76B5169
:101A1600D8B404D06C6D6D1FD8B06D2B6CC066F059
:101A26006DC067F01200000E0001716F8E0E706FB0
:101A36006BAF11D06B1F6A1F691F686D000E69239B
:101A46006A236B23010E716F06D0D8906B336A330D
:101A560069336833702B000E68156C6F000E6915BC
:101A66006D6F000E6A156E6FFF0E6B156F6F6C5102
:101A76006D116E116F11D8A4E8D768C060F069C007
:101A860061F06AC062F070C063F071C064F037EC58
:101A96000CF060C068F061C069F062C06AF01200C4
:101AA600949C948E000E0001846F800E856FBF0E8D
:101AB600866F9CC068F09DC069F09EC06AF09FC0AA
:101AC6006BF016EC0DF068C075F069C076F06AC070
:101AD60077F0240E0001726FF40E736F490E746F67
:101AE60064EC0BF072C081F073C082F074C083F0B6
:101AF600EAEC08F081C08DF082C08EF083C08FF0D2
:101B0600E8EC0AF000018D51AF6E240EAC6E080EA3
:101B1600B86E900EAB6E12003BBE08D03B5004E18F
:101B26000B0E3A5CD8A002D0838001D0839039BED8
:101B360006D0395006E1140E385CD8B002D0839234
:101B460001D0838237BE06D0375006E11E0E365CC2
:101B5600D8B002D0838401D0839435BE06D03550E8
:101B660006E15A0E345CD8B002D0838601D0839643
:101B760033BE06D0335006E1320E325CD8B002D006
:101B86008398120083881200000E066E000E056E02
:101B960003500410D8B41CD0010E076E04D0D890A0
:101BA60003360436072A04AEFAD7D8900536063629
:101BB6000350015C04500258D8A005D00350015EC2
:101BC6000450025A0580D89004320332072EEDD70E
:101BD60005C001F006C002F0120014D002C0F6FFE4
:101BE60003C0F7FFF86A070EF76403D00800F55044
:101BF60005D0F6CFE9FFF7CFEAFFEF5098EC0EF0ED
:101C0600024A032A02C0F6FF03C0F7FFF86A070E6E
:101C1600F76403D00800F55005D0F6CFE9FFF7CFFB
:101C2600EAFFEF500009D8B41200D8D70A500B10BB
:101C3600D8B418D0010E0C6E04D0D8900A360B36E4
:101C46000C2A0BAEFAD70A50085C0B500958D8A0DC
:101C560004D00A50085E0B50095AD8900B320A324B
:101C66000C2EF1D708C008F009C009F01200000ECA
:101C76000001636F000E626F0FD0000E656F000EDD
:101C8600646F655107E1A50E645DD8B003D0644B5F
:101C9600652BF7D7624B632B6251605D63516159C7
:101CA600D8A01200EAD7000E046E000E036E0FD005
:101CB600000E066E000E056E065007E1A50E055CC9
:101CC600D8B003D0054A062AF7D7034A042A035098
:101CD600015C04500258D8A01200EAD700016051F6
:101CE6006203F3CF64F0F4CF65F060516303F35001
:101CF600652761516203F350652764C060F065C0D3
:101D060061F0120001EE00F0A00EEE6AE806FDE1B9
:101D160000EE2EF0230EEE6AE806FDE15190519298
:101D2600000EF86E00018FEF0CF0016E9EA8FED734
:0E1D360001C0ADFF12009EAAFED7AE501200F3
:020000040020DA
:08000000FFFFFFFFFFFFFFFF00
:020000040030CA
:0E00000000091F1EFF0181FF0FC00FE00F401F
:00000001FF
